{
  "_format": "hh-sol-artifact-1",
  "contractName": "MyFoodDapp",
  "sourceName": "contracts/myFoodDapp.sol",
  "abi": [
    {
      "inputs": [],
      "stateMutability": "nonpayable",
      "type": "constructor"
    },
    {
      "inputs": [
        {
          "internalType": "string",
          "name": "food_url",
          "type": "string"
        },
        {
          "internalType": "string",
          "name": "food_name",
          "type": "string"
        },
        {
          "internalType": "string",
          "name": "food_origin_country",
          "type": "string"
        }
      ],
      "name": "addFood",
      "outputs": [],
      "stateMutability": "nonpayable",
      "type": "function"
    },
    {
      "inputs": [],
      "name": "getAllFoods",
      "outputs": [
        {
          "components": [
            {
              "internalType": "address",
              "name": "owner",
              "type": "address"
            },
            {
              "internalType": "string",
              "name": "foodUrl",
              "type": "string"
            },
            {
              "internalType": "string",
              "name": "foodName",
              "type": "string"
            },
            {
              "internalType": "string",
              "name": "originCountry",
              "type": "string"
            }
          ],
          "internalType": "struct MyFoodDapp.MyFoodItem[]",
          "name": "",
          "type": "tuple[]"
        }
      ],
      "stateMutability": "view",
      "type": "function"
    },
    {
      "inputs": [],
      "name": "getFoodByOwner",
      "outputs": [
        {
          "components": [
            {
              "internalType": "address",
              "name": "owner",
              "type": "address"
            },
            {
              "internalType": "string",
              "name": "foodUrl",
              "type": "string"
            },
            {
              "internalType": "string",
              "name": "foodName",
              "type": "string"
            },
            {
              "internalType": "string",
              "name": "originCountry",
              "type": "string"
            }
          ],
          "internalType": "struct MyFoodDapp.MyFoodItem[]",
          "name": "",
          "type": "tuple[]"
        }
      ],
      "stateMutability": "view",
      "type": "function"
    }
  ],
  "bytecode": "0x608060405234801561001057600080fd5b50610f39806100206000396000f3fe608060405234801561001057600080fd5b50600436106100415760003560e01c80636871be6d1461004657806391c625ad14610064578063b9b5aae614610080575b600080fd5b61004e61009e565b60405161005b9190610c18565b60405180910390f35b61007e60048036038101906100799190610a3f565b610584565b005b61008861068b565b6040516100959190610c18565b60405180910390f35b60606000805b600080549050811015610173573373ffffffffffffffffffffffffffffffffffffffff1660008281548110610102577f4e487b7100000000000000000000000000000000000000000000000000000000600052603260045260246000fd5b906000526020600020906004020160000160009054906101000a900473ffffffffffffffffffffffffffffffffffffffff1673ffffffffffffffffffffffffffffffffffffffff1614156101605760018261015d9190610ce5565b91505b808061016b90610e1c565b9150506100a4565b5060008167ffffffffffffffff8111156101b6577f4e487b7100000000000000000000000000000000000000000000000000000000600052604160045260246000fd5b6040519080825280602002602001820160405280156101ef57816020015b6101dc6108f6565b8152602001906001900390816101d45790505b50905060005b8281101561057b5760005b600080549050811015610567573373ffffffffffffffffffffffffffffffffffffffff166000828154811061025e577f4e487b7100000000000000000000000000000000000000000000000000000000600052603260045260246000fd5b906000526020600020906004020160000160009054906101000a900473ffffffffffffffffffffffffffffffffffffffff1673ffffffffffffffffffffffffffffffffffffffff16141561055457600081815481106102e6577f4e487b7100000000000000000000000000000000000000000000000000000000600052603260045260246000fd5b90600052602060002090600402016040518060800160405290816000820160009054906101000a900473ffffffffffffffffffffffffffffffffffffffff1673ffffffffffffffffffffffffffffffffffffffff1673ffffffffffffffffffffffffffffffffffffffff16815260200160018201805461036590610db9565b80601f016020809104026020016040519081016040528092919081815260200182805461039190610db9565b80156103de5780601f106103b3576101008083540402835291602001916103de565b820191906000526020600020905b8154815290600101906020018083116103c157829003601f168201915b505050505081526020016002820180546103f790610db9565b80601f016020809104026020016040519081016040528092919081815260200182805461042390610db9565b80156104705780601f1061044557610100808354040283529160200191610470565b820191906000526020600020905b81548152906001019060200180831161045357829003601f168201915b5050505050815260200160038201805461048990610db9565b80601f01602080910402602001604051908101604052809291908181526020018280546104b590610db9565b80156105025780601f106104d757610100808354040283529160200191610502565b820191906000526020600020905b8154815290600101906020018083116104e557829003601f168201915b505050505081525050838381518110610544577f4e487b7100000000000000000000000000000000000000000000000000000000600052603260045260246000fd5b6020026020010181905250610567565b808061055f90610e1c565b915050610200565b50808061057390610e1c565b9150506101f5565b50809250505090565b600060405180608001604052803373ffffffffffffffffffffffffffffffffffffffff16815260200185815260200184815260200183815250908060018154018082558091505060019003906000526020600020906004020160009091909190915060008201518160000160006101000a81548173ffffffffffffffffffffffffffffffffffffffff021916908373ffffffffffffffffffffffffffffffffffffffff1602179055506020820151816001019080519060200190610649929190610934565b506040820151816002019080519060200190610666929190610934565b506060820151816003019080519060200190610683929190610934565b505050505050565b60606000805480602002602001604051908101604052809291908181526020016000905b828210156108ed57838290600052602060002090600402016040518060800160405290816000820160009054906101000a900473ffffffffffffffffffffffffffffffffffffffff1673ffffffffffffffffffffffffffffffffffffffff1673ffffffffffffffffffffffffffffffffffffffff16815260200160018201805461073890610db9565b80601f016020809104026020016040519081016040528092919081815260200182805461076490610db9565b80156107b15780601f10610786576101008083540402835291602001916107b1565b820191906000526020600020905b81548152906001019060200180831161079457829003601f168201915b505050505081526020016002820180546107ca90610db9565b80601f01602080910402602001604051908101604052809291908181526020018280546107f690610db9565b80156108435780601f1061081857610100808354040283529160200191610843565b820191906000526020600020905b81548152906001019060200180831161082657829003601f168201915b5050505050815260200160038201805461085c90610db9565b80601f016020809104026020016040519081016040528092919081815260200182805461088890610db9565b80156108d55780601f106108aa576101008083540402835291602001916108d5565b820191906000526020600020905b8154815290600101906020018083116108b857829003601f168201915b505050505081525050815260200190600101906106af565b50505050905090565b6040518060800160405280600073ffffffffffffffffffffffffffffffffffffffff1681526020016060815260200160608152602001606081525090565b82805461094090610db9565b90600052602060002090601f01602090048101928261096257600085556109a9565b82601f1061097b57805160ff19168380011785556109a9565b828001600101855582156109a9579182015b828111156109a857825182559160200191906001019061098d565b5b5090506109b691906109ba565b5090565b5b808211156109d35760008160009055506001016109bb565b5090565b60006109ea6109e584610c5f565b610c3a565b905082815260208101848484011115610a0257600080fd5b610a0d848285610d77565b509392505050565b600082601f830112610a2657600080fd5b8135610a368482602086016109d7565b91505092915050565b600080600060608486031215610a5457600080fd5b600084013567ffffffffffffffff811115610a6e57600080fd5b610a7a86828701610a15565b935050602084013567ffffffffffffffff811115610a9757600080fd5b610aa386828701610a15565b925050604084013567ffffffffffffffff811115610ac057600080fd5b610acc86828701610a15565b9150509250925092565b6000610ae28383610ba7565b905092915050565b610af381610d3b565b82525050565b6000610b0482610ca0565b610b0e8185610cc3565b935083602082028501610b2085610c90565b8060005b85811015610b5c5784840389528151610b3d8582610ad6565b9450610b4883610cb6565b925060208a01995050600181019050610b24565b50829750879550505050505092915050565b6000610b7982610cab565b610b838185610cd4565b9350610b93818560208601610d86565b610b9c81610ef2565b840191505092915050565b6000608083016000830151610bbf6000860182610aea565b5060208301518482036020860152610bd78282610b6e565b91505060408301518482036040860152610bf18282610b6e565b91505060608301518482036060860152610c0b8282610b6e565b9150508091505092915050565b60006020820190508181036000830152610c328184610af9565b905092915050565b6000610c44610c55565b9050610c508282610deb565b919050565b6000604051905090565b600067ffffffffffffffff821115610c7a57610c79610ec3565b5b610c8382610ef2565b9050602081019050919050565b6000819050602082019050919050565b600081519050919050565b600081519050919050565b6000602082019050919050565b600082825260208201905092915050565b600082825260208201905092915050565b6000610cf082610d6d565b9150610cfb83610d6d565b9250827fffffffffffffffffffffffffffffffffffffffffffffffffffffffffffffffff03821115610d3057610d2f610e65565b5b828201905092915050565b6000610d4682610d4d565b9050919050565b600073ffffffffffffffffffffffffffffffffffffffff82169050919050565b6000819050919050565b82818337600083830152505050565b60005b83811015610da4578082015181840152602081019050610d89565b83811115610db3576000848401525b50505050565b60006002820490506001821680610dd157607f821691505b60208210811415610de557610de4610e94565b5b50919050565b610df482610ef2565b810181811067ffffffffffffffff82111715610e1357610e12610ec3565b5b80604052505050565b6000610e2782610d6d565b91507fffffffffffffffffffffffffffffffffffffffffffffffffffffffffffffffff821415610e5a57610e59610e65565b5b600182019050919050565b7f4e487b7100000000000000000000000000000000000000000000000000000000600052601160045260246000fd5b7f4e487b7100000000000000000000000000000000000000000000000000000000600052602260045260246000fd5b7f4e487b7100000000000000000000000000000000000000000000000000000000600052604160045260246000fd5b6000601f19601f830116905091905056fea2646970667358221220d07ccc262f4d9819d3476aac22ddfcc865bdbcc9baace154c9c37f0e44fc034f64736f6c63430008040033",
  "linkReferences": {},
  "deployedLinkReferences": {}
}